:020000040000FA
:0440000093EF7FF0CB
:10FF26000001B7EF7FF0A9EC7FF0DBEC7FF09DECF2
:10FF36007FF01200620E0E01D86F000EDA6F000E0F
:10FF4600DC6F060EDE6F000EDD6F1200000E0E0176
:10FF5600E16F000EE26F000EE36F000EE46F000E1D
:10FF6600E56F000EE66F120096EC7FF083BEBEEFE3
:10FF76007FF0C1EF7FF0010EC2EF7FF0000EFF0AA7
:10FF8600016E01320132835001187F0B0118836E16
:10FF9600020E026E040E016EBA0EE82EFED7012E78
:10FFA600FCD7022EFAD700D0B9EF7FF000EF20F091
:10FFB600000E836E000E846E000E856E7F0E886EB8
:10FFC60089688A680F01216919691169000E2D6F08
:10FFD600000E186F000E106F000E206F000E0F6FD0
:10FFE600000E176F000E1F6F0E6916691E690D69E8
:0AFFF60015691D69080E2A6F12003C
:020000040020DA
:10000000FF0FFF0FFF0FFF0FFF0FFF0FFF0FFF0F80
:020000040030CA
:0C000000ECFFFFFF9FFFFFFFFFFFFFFF73
:00000001FF
