:020000040000FA
:0440000094EF7FF0CA
:10FF28000001B8EF7FF0AAEC7FF0DBEC7FF09EECED
:10FF38007FF01200620E0E01D86F000EDA6F000E0D
:10FF4800DC6F060EDE6F000EDD6F1200000E0E0174
:10FF5800E16F000EE26F000EE36F000EE46F000E1B
:10FF6800E56F000EE66F120097EC7FF083BEBFEFDF
:10FF78007FF0C2EF7FF0010EC3EF7FF0000EFF0AA3
:10FF8800016E01320132835001187F0B0118836E14
:10FF9800060E026E130E016EAE0EE82EFED7012E6F
:10FFA800FCD7022EFAD7BAEF7FF000EF20F0000E50
:10FFB800836E000E846E000E856E7F0E886E8968D3
:10FFC8008A680F01216919691169000E2D6F000EE9
:10FFD800186F000E106F000E206F000E0F6F000ECE
:10FFE800176F000E1F6F0E6916691E690D69156976
:08FFF8001D69080E2A6F1200BA
:020000040020DA
:10000000FF0FFF0FFF0FFF0FFF0FFF0FFF0FFF0F80
:020000040030CA
:0C000000ECFFFFFF9FFFFFFFFFFFFFFF73
:00000001FF
