:020000040000FA
:0440000027EF20F096
:104008000D82FACF03F0FBCF04F0F2AC0EEF20F0F4
:1040180010EF20F021EF20F00E01C6A116EF20F0DE
:1040280018EF20F021EF20F0CEA11DEF20F01FEFB8
:1040380020F021EF20F06FEC20F004C0FBFF03C05C
:10404800FAFF0D921100EAEF20F0000E836E000EC9
:10405800846E000E856E7F0E886E89688A680F01EF
:10406800216919691169000E2D6F000E186F000E75
:10407800106F000E206F000E0F6F000E176F000EEE
:104088001F6F0E6916691E690D6915691D69080E8D
:104098002A6F1200000ED06E000ED16E010ED26E85
:1040A8000B0ECE6EDC0ECD6E0E01CE91CD50CECF66
:1040B80007F0086A07C008F0076A07100B6E085077
:1040C8000C6EC681F40E056E410E066EF1EC20F002
:1040D800310ECF6E12000E01CE910BC001F00CC054
:1040E80002F08EEC20F009500A10D8B47EEF20F0D0
:1040F80080EF20F08DEF20F002D88DEF20F0050042
:10410800FA6E0950FD6E0A50FE6EF850FF6EFA50B6
:1041180012001200CFA493EF20F095EF20F09DEF4E
:1041280020F0CF900250CE6E01C0CDFFCF80A1EF1E
:1041380020F00250CE6E01C0CDFF120083BEA7EF63
:1041480020F0AAEF20F0010EABEF20F0000EFF0ADE
:10415800016E01320132835001187F0B0118836E02
:104168001200DFEC20F0440E056E410E066EF1ECF5
:1041780020F0F6EC20F0F28EF28CC1EF20F027EF61
:1041880020F0000E0E01E16F000EE26F000EE36FEB
:10419800000EE46F000EE56F000EE66F1200620E6F
:1041A8000E01D86F000EDA6F000EDC6F060EDE6FA0
:1041B800000EDD6F1200F8EC20F0C5EC20F029ECC1
:1041C80020F0D3EC20F04EEC20F012000D900D9270
:1041D800000EF86E0001B5EF20F005C009F006C02A
:0E41E8000AF01200CF801200F29A12001200AC
:020000040020DA
:10000000FF0FFF0FFF0FFF0FFF0FFF0FFF0FFF0F80
:020000040030CA
:0C000000ECFFFFFF9FFFFFFFFFFFFFFF73
:00000001FF
